{
  "_format": "hh-sol-artifact-1",
  "contractName": "AIGirlfriendINFT",
  "sourceName": "contracts/AIGirlfriendNFT.sol",
  "abi": [
    {
      "inputs": [
        {
          "internalType": "address",
          "name": "initialOwner",
          "type": "address"
        },
        {
          "internalType": "address",
          "name": "_oracle",
          "type": "address"
        }
      ],
      "stateMutability": "nonpayable",
      "type": "constructor"
    },
    {
      "inputs": [
        {
          "internalType": "address",
          "name": "sender",
          "type": "address"
        },
        {
          "internalType": "uint256",
          "name": "tokenId",
          "type": "uint256"
        },
        {
          "internalType": "address",
          "name": "owner",
          "type": "address"
        }
      ],
      "name": "ERC721IncorrectOwner",
      "type": "error"
    },
    {
      "inputs": [
        {
          "internalType": "address",
          "name": "operator",
          "type": "address"
        },
        {
          "internalType": "uint256",
          "name": "tokenId",
          "type": "uint256"
        }
      ],
      "name": "ERC721InsufficientApproval",
      "type": "error"
    },
    {
      "inputs": [
        {
          "internalType": "address",
          "name": "approver",
          "type": "address"
        }
      ],
      "name": "ERC721InvalidApprover",
      "type": "error"
    },
    {
      "inputs": [
        {
          "internalType": "address",
          "name": "operator",
          "type": "address"
        }
      ],
      "name": "ERC721InvalidOperator",
      "type": "error"
    },
    {
      "inputs": [
        {
          "internalType": "address",
          "name": "owner",
          "type": "address"
        }
      ],
      "name": "ERC721InvalidOwner",
      "type": "error"
    },
    {
      "inputs": [
        {
          "internalType": "address",
          "name": "receiver",
          "type": "address"
        }
      ],
      "name": "ERC721InvalidReceiver",
      "type": "error"
    },
    {
      "inputs": [
        {
          "internalType": "address",
          "name": "sender",
          "type": "address"
        }
      ],
      "name": "ERC721InvalidSender",
      "type": "error"
    },
    {
      "inputs": [
        {
          "internalType": "uint256",
          "name": "tokenId",
          "type": "uint256"
        }
      ],
      "name": "ERC721NonexistentToken",
      "type": "error"
    },
    {
      "inputs": [
        {
          "internalType": "address",
          "name": "owner",
          "type": "address"
        }
      ],
      "name": "OwnableInvalidOwner",
      "type": "error"
    },
    {
      "inputs": [
        {
          "internalType": "address",
          "name": "account",
          "type": "address"
        }
      ],
      "name": "OwnableUnauthorizedAccount",
      "type": "error"
    },
    {
      "inputs": [],
      "name": "ReentrancyGuardReentrantCall",
      "type": "error"
    },
    {
      "anonymous": false,
      "inputs": [
        {
          "indexed": true,
          "internalType": "uint256",
          "name": "tokenId",
          "type": "uint256"
        },
        {
          "indexed": true,
          "internalType": "address",
          "name": "creator",
          "type": "address"
        },
        {
          "indexed": false,
          "internalType": "string",
          "name": "name",
          "type": "string"
        },
        {
          "indexed": false,
          "internalType": "string",
          "name": "personality",
          "type": "string"
        },
        {
          "indexed": false,
          "internalType": "string",
          "name": "encryptedURI",
          "type": "string"
        },
        {
          "indexed": false,
          "internalType": "bytes32",
          "name": "metadataHash",
          "type": "bytes32"
        },
        {
          "indexed": false,
          "internalType": "string",
          "name": "imageHash",
          "type": "string"
        }
      ],
      "name": "AIGirlfriendMinted",
      "type": "event"
    },
    {
      "anonymous": false,
      "inputs": [
        {
          "indexed": true,
          "internalType": "address",
          "name": "owner",
          "type": "address"
        },
        {
          "indexed": true,
          "internalType": "address",
          "name": "approved",
          "type": "address"
        },
        {
          "indexed": true,
          "internalType": "uint256",
          "name": "tokenId",
          "type": "uint256"
        }
      ],
      "name": "Approval",
      "type": "event"
    },
    {
      "anonymous": false,
      "inputs": [
        {
          "indexed": true,
          "internalType": "address",
          "name": "owner",
          "type": "address"
        },
        {
          "indexed": true,
          "internalType": "address",
          "name": "operator",
          "type": "address"
        },
        {
          "indexed": false,
          "internalType": "bool",
          "name": "approved",
          "type": "bool"
        }
      ],
      "name": "ApprovalForAll",
      "type": "event"
    },
    {
      "anonymous": false,
      "inputs": [
        {
          "indexed": true,
          "internalType": "uint256",
          "name": "tokenId",
          "type": "uint256"
        },
        {
          "indexed": true,
          "internalType": "address",
          "name": "user",
          "type": "address"
        },
        {
          "indexed": false,
          "internalType": "uint256",
          "name": "sessionCount",
          "type": "uint256"
        }
      ],
      "name": "ChatSessionStarted",
      "type": "event"
    },
    {
      "anonymous": false,
      "inputs": [
        {
          "indexed": true,
          "internalType": "uint256",
          "name": "tokenId",
          "type": "uint256"
        },
        {
          "indexed": false,
          "internalType": "bytes32",
          "name": "metadataHash",
          "type": "bytes32"
        }
      ],
      "name": "MetadataUpdated",
      "type": "event"
    },
    {
      "anonymous": false,
      "inputs": [
        {
          "indexed": true,
          "internalType": "address",
          "name": "previousOwner",
          "type": "address"
        },
        {
          "indexed": true,
          "internalType": "address",
          "name": "newOwner",
          "type": "address"
        }
      ],
      "name": "OwnershipTransferred",
      "type": "event"
    },
    {
      "anonymous": false,
      "inputs": [
        {
          "indexed": true,
          "internalType": "address",
          "name": "from",
          "type": "address"
        },
        {
          "indexed": true,
          "internalType": "address",
          "name": "to",
          "type": "address"
        },
        {
          "indexed": true,
          "internalType": "uint256",
          "name": "tokenId",
          "type": "uint256"
        }
      ],
      "name": "Transfer",
      "type": "event"
    },
    {
      "inputs": [],
      "name": "CHAT_PRICE",
      "outputs": [
        {
          "internalType": "uint256",
          "name": "",
          "type": "uint256"
        }
      ],
      "stateMutability": "view",
      "type": "function"
    },
    {
      "inputs": [],
      "name": "MINT_PRICE",
      "outputs": [
        {
          "internalType": "uint256",
          "name": "",
          "type": "uint256"
        }
      ],
      "stateMutability": "view",
      "type": "function"
    },
    {
      "inputs": [
        {
          "internalType": "address",
          "name": "to",
          "type": "address"
        },
        {
          "internalType": "uint256",
          "name": "tokenId",
          "type": "uint256"
        }
      ],
      "name": "approve",
      "outputs": [],
      "stateMutability": "nonpayable",
      "type": "function"
    },
    {
      "inputs": [
        {
          "internalType": "uint256",
          "name": "tokenId",
          "type": "uint256"
        },
        {
          "internalType": "address",
          "name": "user",
          "type": "address"
        },
        {
          "internalType": "bytes",
          "name": "authData",
          "type": "bytes"
        }
      ],
      "name": "authorizeUsage",
      "outputs": [],
      "stateMutability": "nonpayable",
      "type": "function"
    },
    {
      "inputs": [
        {
          "internalType": "address",
          "name": "owner",
          "type": "address"
        }
      ],
      "name": "balanceOf",
      "outputs": [
        {
          "internalType": "uint256",
          "name": "",
          "type": "uint256"
        }
      ],
      "stateMutability": "view",
      "type": "function"
    },
    {
      "inputs": [
        {
          "internalType": "uint256",
          "name": "",
          "type": "uint256"
        },
        {
          "internalType": "address",
          "name": "",
          "type": "address"
        }
      ],
      "name": "chatSessions",
      "outputs": [
        {
          "internalType": "uint256",
          "name": "",
          "type": "uint256"
        }
      ],
      "stateMutability": "view",
      "type": "function"
    },
    {
      "inputs": [],
      "name": "getAllPublicGirlfriends",
      "outputs": [
        {
          "internalType": "uint256[]",
          "name": "",
          "type": "uint256[]"
        }
      ],
      "stateMutability": "view",
      "type": "function"
    },
    {
      "inputs": [
        {
          "internalType": "uint256",
          "name": "tokenId",
          "type": "uint256"
        }
      ],
      "name": "getApproved",
      "outputs": [
        {
          "internalType": "address",
          "name": "",
          "type": "address"
        }
      ],
      "stateMutability": "view",
      "type": "function"
    },
    {
      "inputs": [
        {
          "internalType": "uint256",
          "name": "tokenId",
          "type": "uint256"
        }
      ],
      "name": "getEncryptedURI",
      "outputs": [
        {
          "internalType": "string",
          "name": "",
          "type": "string"
        }
      ],
      "stateMutability": "view",
      "type": "function"
    },
    {
      "inputs": [
        {
          "internalType": "uint256",
          "name": "tokenId",
          "type": "uint256"
        }
      ],
      "name": "getGirlfriendDetails",
      "outputs": [
        {
          "components": [
            {
              "internalType": "string",
              "name": "name",
              "type": "string"
            },
            {
              "internalType": "string",
              "name": "encryptedURI",
              "type": "string"
            },
            {
              "internalType": "bytes32",
              "name": "metadataHash",
              "type": "bytes32"
            },
            {
              "internalType": "string",
              "name": "imageHash",
              "type": "string"
            },
            {
              "internalType": "address",
              "name": "creator",
              "type": "address"
            },
            {
              "internalType": "uint256",
              "name": "createdAt",
              "type": "uint256"
            },
            {
              "internalType": "uint256",
              "name": "totalChats",
              "type": "uint256"
            },
            {
              "internalType": "bool",
              "name": "isPublic",
              "type": "bool"
            }
          ],
          "internalType": "struct AIGirlfriendINFT.AIGirlfriend",
          "name": "",
          "type": "tuple"
        }
      ],
      "stateMutability": "view",
      "type": "function"
    },
    {
      "inputs": [
        {
          "internalType": "uint256",
          "name": "tokenId",
          "type": "uint256"
        },
        {
          "internalType": "address",
          "name": "user",
          "type": "address"
        }
      ],
      "name": "getUserChatCount",
      "outputs": [
        {
          "internalType": "uint256",
          "name": "",
          "type": "uint256"
        }
      ],
      "stateMutability": "view",
      "type": "function"
    },
    {
      "inputs": [
        {
          "internalType": "address",
          "name": "user",
          "type": "address"
        }
      ],
      "name": "getUserCreatedGirlfriends",
      "outputs": [
        {
          "internalType": "uint256[]",
          "name": "",
          "type": "uint256[]"
        }
      ],
      "stateMutability": "view",
      "type": "function"
    },
    {
      "inputs": [
        {
          "internalType": "uint256",
          "name": "",
          "type": "uint256"
        }
      ],
      "name": "girlfriends",
      "outputs": [
        {
          "internalType": "string",
          "name": "name",
          "type": "string"
        },
        {
          "internalType": "string",
          "name": "encryptedURI",
          "type": "string"
        },
        {
          "internalType": "bytes32",
          "name": "metadataHash",
          "type": "bytes32"
        },
        {
          "internalType": "string",
          "name": "imageHash",
          "type": "string"
        },
        {
          "internalType": "address",
          "name": "creator",
          "type": "address"
        },
        {
          "internalType": "uint256",
          "name": "createdAt",
          "type": "uint256"
        },
        {
          "internalType": "uint256",
          "name": "totalChats",
          "type": "uint256"
        },
        {
          "internalType": "bool",
          "name": "isPublic",
          "type": "bool"
        }
      ],
      "stateMutability": "view",
      "type": "function"
    },
    {
      "inputs": [
        {
          "internalType": "address",
          "name": "owner",
          "type": "address"
        },
        {
          "internalType": "address",
          "name": "operator",
          "type": "address"
        }
      ],
      "name": "isApprovedForAll",
      "outputs": [
        {
          "internalType": "bool",
          "name": "",
          "type": "bool"
        }
      ],
      "stateMutability": "view",
      "type": "function"
    },
    {
      "inputs": [
        {
          "internalType": "string",
          "name": "name",
          "type": "string"
        },
        {
          "internalType": "string",
          "name": "encryptedURI",
          "type": "string"
        },
        {
          "internalType": "bytes32",
          "name": "metadataHash",
          "type": "bytes32"
        },
        {
          "internalType": "string",
          "name": "imageHash",
          "type": "string"
        },
        {
          "internalType": "bool",
          "name": "isPublic",
          "type": "bool"
        }
      ],
      "name": "mintGirlfriend",
      "outputs": [],
      "stateMutability": "payable",
      "type": "function"
    },
    {
      "inputs": [],
      "name": "name",
      "outputs": [
        {
          "internalType": "string",
          "name": "",
          "type": "string"
        }
      ],
      "stateMutability": "view",
      "type": "function"
    },
    {
      "inputs": [],
      "name": "oracle",
      "outputs": [
        {
          "internalType": "address",
          "name": "",
          "type": "address"
        }
      ],
      "stateMutability": "view",
      "type": "function"
    },
    {
      "inputs": [],
      "name": "owner",
      "outputs": [
        {
          "internalType": "address",
          "name": "",
          "type": "address"
        }
      ],
      "stateMutability": "view",
      "type": "function"
    },
    {
      "inputs": [
        {
          "internalType": "uint256",
          "name": "tokenId",
          "type": "uint256"
        }
      ],
      "name": "ownerOf",
      "outputs": [
        {
          "internalType": "address",
          "name": "",
          "type": "address"
        }
      ],
      "stateMutability": "view",
      "type": "function"
    },
    {
      "inputs": [],
      "name": "renounceOwnership",
      "outputs": [],
      "stateMutability": "nonpayable",
      "type": "function"
    },
    {
      "inputs": [
        {
          "internalType": "address",
          "name": "from",
          "type": "address"
        },
        {
          "internalType": "address",
          "name": "to",
          "type": "address"
        },
        {
          "internalType": "uint256",
          "name": "tokenId",
          "type": "uint256"
        }
      ],
      "name": "safeTransferFrom",
      "outputs": [],
      "stateMutability": "nonpayable",
      "type": "function"
    },
    {
      "inputs": [
        {
          "internalType": "address",
          "name": "from",
          "type": "address"
        },
        {
          "internalType": "address",
          "name": "to",
          "type": "address"
        },
        {
          "internalType": "uint256",
          "name": "tokenId",
          "type": "uint256"
        },
        {
          "internalType": "bytes",
          "name": "data",
          "type": "bytes"
        }
      ],
      "name": "safeTransferFrom",
      "outputs": [],
      "stateMutability": "nonpayable",
      "type": "function"
    },
    {
      "inputs": [
        {
          "internalType": "address",
          "name": "operator",
          "type": "address"
        },
        {
          "internalType": "bool",
          "name": "approved",
          "type": "bool"
        }
      ],
      "name": "setApprovalForAll",
      "outputs": [],
      "stateMutability": "nonpayable",
      "type": "function"
    },
    {
      "inputs": [
        {
          "internalType": "uint256",
          "name": "tokenId",
          "type": "uint256"
        },
        {
          "internalType": "bool",
          "name": "isPublic",
          "type": "bool"
        }
      ],
      "name": "setGirlfriendPublic",
      "outputs": [],
      "stateMutability": "nonpayable",
      "type": "function"
    },
    {
      "inputs": [
        {
          "internalType": "uint256",
          "name": "tokenId",
          "type": "uint256"
        }
      ],
      "name": "startChatSession",
      "outputs": [],
      "stateMutability": "payable",
      "type": "function"
    },
    {
      "inputs": [
        {
          "internalType": "bytes4",
          "name": "interfaceId",
          "type": "bytes4"
        }
      ],
      "name": "supportsInterface",
      "outputs": [
        {
          "internalType": "bool",
          "name": "",
          "type": "bool"
        }
      ],
      "stateMutability": "view",
      "type": "function"
    },
    {
      "inputs": [],
      "name": "symbol",
      "outputs": [
        {
          "internalType": "string",
          "name": "",
          "type": "string"
        }
      ],
      "stateMutability": "view",
      "type": "function"
    },
    {
      "inputs": [
        {
          "internalType": "uint256",
          "name": "tokenId",
          "type": "uint256"
        }
      ],
      "name": "tokenURI",
      "outputs": [
        {
          "internalType": "string",
          "name": "",
          "type": "string"
        }
      ],
      "stateMutability": "view",
      "type": "function"
    },
    {
      "inputs": [
        {
          "internalType": "address",
          "name": "from",
          "type": "address"
        },
        {
          "internalType": "address",
          "name": "to",
          "type": "address"
        },
        {
          "internalType": "uint256",
          "name": "tokenId",
          "type": "uint256"
        }
      ],
      "name": "transferFrom",
      "outputs": [],
      "stateMutability": "nonpayable",
      "type": "function"
    },
    {
      "inputs": [
        {
          "internalType": "address",
          "name": "newOwner",
          "type": "address"
        }
      ],
      "name": "transferOwnership",
      "outputs": [],
      "stateMutability": "nonpayable",
      "type": "function"
    },
    {
      "inputs": [
        {
          "internalType": "address",
          "name": "from",
          "type": "address"
        },
        {
          "internalType": "address",
          "name": "to",
          "type": "address"
        },
        {
          "internalType": "uint256",
          "name": "tokenId",
          "type": "uint256"
        },
        {
          "internalType": "bytes",
          "name": "sealedKey",
          "type": "bytes"
        },
        {
          "internalType": "bytes",
          "name": "proof",
          "type": "bytes"
        }
      ],
      "name": "transferWithMetadata",
      "outputs": [],
      "stateMutability": "nonpayable",
      "type": "function"
    },
    {
      "inputs": [
        {
          "internalType": "address",
          "name": "",
          "type": "address"
        },
        {
          "internalType": "uint256",
          "name": "",
          "type": "uint256"
        }
      ],
      "name": "userCreatedGirlfriends",
      "outputs": [
        {
          "internalType": "uint256",
          "name": "",
          "type": "uint256"
        }
      ],
      "stateMutability": "view",
      "type": "function"
    },
    {
      "inputs": [],
      "name": "withdraw",
      "outputs": [],
      "stateMutability": "nonpayable",
      "type": "function"
    }
  ],
  "bytecode": "0x608060405260016008553480156200001657600080fd5b5060405162005e7038038062005e7083398181016040528101906200003c9190620002d7565b816040518060400160405280601281526020017f4149204769726c667269656e6420494e465400000000000000000000000000008152506040518060400160405280600481526020017f41494746000000000000000000000000000000000000000000000000000000008152508160009081620000ba919062000598565b508060019081620000cc919062000598565b505050600073ffffffffffffffffffffffffffffffffffffffff168173ffffffffffffffffffffffffffffffffffffffff1603620001445760006040517f1e4fbdf70000000000000000000000000000000000000000000000000000000081526004016200013b919062000690565b60405180910390fd5b6200015581620001a760201b60201c565b50600160078190555080600f60006101000a81548173ffffffffffffffffffffffffffffffffffffffff021916908373ffffffffffffffffffffffffffffffffffffffff1602179055505050620006ad565b6000600660009054906101000a900473ffffffffffffffffffffffffffffffffffffffff16905081600660006101000a81548173ffffffffffffffffffffffffffffffffffffffff021916908373ffffffffffffffffffffffffffffffffffffffff1602179055508173ffffffffffffffffffffffffffffffffffffffff168173ffffffffffffffffffffffffffffffffffffffff167f8be0079c531659141344cd1fd0a4f28419497f9722a3daafe3b4186f6b6457e060405160405180910390a35050565b600080fd5b600073ffffffffffffffffffffffffffffffffffffffff82169050919050565b60006200029f8262000272565b9050919050565b620002b18162000292565b8114620002bd57600080fd5b50565b600081519050620002d181620002a6565b92915050565b60008060408385031215620002f157620002f06200026d565b5b60006200030185828601620002c0565b92505060206200031485828601620002c0565b9150509250929050565b600081519050919050565b7f4e487b7100000000000000000000000000000000000000000000000000000000600052604160045260246000fd5b7f4e487b7100000000000000000000000000000000000000000000000000000000600052602260045260246000fd5b60006002820490506001821680620003a057607f821691505b602082108103620003b657620003b562000358565b5b50919050565b60008190508160005260206000209050919050565b60006020601f8301049050919050565b600082821b905092915050565b600060088302620004207fffffffffffffffffffffffffffffffffffffffffffffffffffffffffffffffff82620003e1565b6200042c8683620003e1565b95508019841693508086168417925050509392505050565b6000819050919050565b6000819050919050565b600062000479620004736200046d8462000444565b6200044e565b62000444565b9050919050565b6000819050919050565b620004958362000458565b620004ad620004a48262000480565b848454620003ee565b825550505050565b600090565b620004c4620004b5565b620004d18184846200048a565b505050565b5b81811015620004f957620004ed600082620004ba565b600181019050620004d7565b5050565b601f82111562000548576200051281620003bc565b6200051d84620003d1565b810160208510156200052d578190505b620005456200053c85620003d1565b830182620004d6565b50505b505050565b600082821c905092915050565b60006200056d600019846008026200054d565b1980831691505092915050565b60006200058883836200055a565b9150826002028217905092915050565b620005a3826200031e565b67ffffffffffffffff811115620005bf57620005be62000329565b5b620005cb825462000387565b620005d8828285620004fd565b600060209050601f831160018114620006105760008415620005fb578287015190505b6200060785826200057a565b86555062000677565b601f1984166200062086620003bc565b60005b828110156200064a5784890151825560018201915060208501945060208101905062000623565b868310156200066a578489015162000666601f8916826200055a565b8355505b6001600288020188555050505b505050505050565b6200068a8162000292565b82525050565b6000602082019050620006a760008301846200067f565b92915050565b6157b380620006bd6000396000f3fe6080604052600436106101ee5760003560e01c80637dc0d1d01161010d578063acbb3f7c116100a0578063d1a20e261161006f578063d1a20e2614610743578063e5c12fc71461075f578063e81affb814610788578063e985e9c5146107b1578063f2fde38b146107ee576101ee565b8063acbb3f7c14610675578063b88d4fde146106b2578063c002d23d146106db578063c87b56dd14610706576101ee565b806395d89b41116100dc57806395d89b41146105c85780639d8cc1d7146105f3578063a22cb4651461060f578063a453c79e14610638576101ee565b80637dc0d1d0146104f85780638a6caa26146105235780638da5cb5b1461056057806395423ec71461058b576101ee565b806334ae658d116101855780636352211e116101545780636352211e1461043e57806370a082311461047b578063715018a6146104b85780637b297a6f146104cf576101ee565b806334ae658d146103965780633ccfd60b146103d357806342842e0e146103ea578063571c4f8114610413576101ee565b80630e555118116101c15780630e555118146102c157806323b872dd146102fe5780632dfb48c414610327578063316a20bb1461036b576101ee565b806301ffc9a7146101f357806306fdde0314610230578063081812fc1461025b578063095ea7b314610298575b600080fd5b3480156101ff57600080fd5b5061021a600480360381019061021591906139a2565b610817565b60405161022791906139ea565b60405180910390f35b34801561023c57600080fd5b506102456108f9565b6040516102529190613a95565b60405180910390f35b34801561026757600080fd5b50610282600480360381019061027d9190613aed565b61098b565b60405161028f9190613b5b565b60405180910390f35b3480156102a457600080fd5b506102bf60048036038101906102ba9190613ba2565b6109a7565b005b3480156102cd57600080fd5b506102e860048036038101906102e39190613aed565b6109bd565b6040516102f59190613d30565b60405180910390f35b34801561030a57600080fd5b5061032560048036038101906103209190613d52565b610c78565b005b34801561033357600080fd5b5061034e60048036038101906103499190613aed565b610d7a565b604051610362989796959493929190613dc3565b60405180910390f35b34801561037757600080fd5b50610380610f87565b60405161038d9190613e56565b60405180910390f35b3480156103a257600080fd5b506103bd60048036038101906103b89190613e71565b610f92565b6040516103ca9190613e56565b60405180910390f35b3480156103df57600080fd5b506103e8610fb7565b005b3480156103f657600080fd5b50610411600480360381019061040c9190613d52565b611058565b005b34801561041f57600080fd5b50610428611078565b6040516104359190613f60565b60405180910390f35b34801561044a57600080fd5b5061046560048036038101906104609190613aed565b611210565b6040516104729190613b5b565b60405180910390f35b34801561048757600080fd5b506104a2600480360381019061049d9190613f82565b611222565b6040516104af9190613e56565b60405180910390f35b3480156104c457600080fd5b506104cd6112dc565b005b3480156104db57600080fd5b506104f660048036038101906104f19190614014565b6112f0565b005b34801561050457600080fd5b5061050d6113cc565b60405161051a9190613b5b565b60405180910390f35b34801561052f57600080fd5b5061054a60048036038101906105459190613ba2565b6113f2565b6040516105579190613e56565b60405180910390f35b34801561056c57600080fd5b50610575611423565b6040516105829190613b5b565b60405180910390f35b34801561059757600080fd5b506105b260048036038101906105ad9190613f82565b61144d565b6040516105bf9190613f60565b60405180910390f35b3480156105d457600080fd5b506105dd6114e4565b6040516105ea9190613a95565b60405180910390f35b61060d60048036038101906106089190613aed565b611576565b005b34801561061b57600080fd5b50610636600480360381019061063191906140b4565b6118f5565b005b34801561064457600080fd5b5061065f600480360381019061065a9190613e71565b61190b565b60405161066c9190613e56565b60405180910390f35b34801561068157600080fd5b5061069c60048036038101906106979190613aed565b611966565b6040516106a99190613a95565b60405180910390f35b3480156106be57600080fd5b506106d960048036038101906106d49190614224565b611b30565b005b3480156106e757600080fd5b506106f0611b55565b6040516106fd9190613e56565b60405180910390f35b34801561071257600080fd5b5061072d60048036038101906107289190613aed565b611b60565b60405161073a9190613a95565b60405180910390f35b61075d60048036038101906107589190614374565b611edc565b005b34801561076b57600080fd5b5061078660048036038101906107819190614443565b612298565b005b34801561079457600080fd5b506107af60048036038101906107aa91906144ff565b6123d8565b005b3480156107bd57600080fd5b506107d860048036038101906107d3919061453f565b612480565b6040516107e591906139ea565b60405180910390f35b3480156107fa57600080fd5b5061081560048036038101906108109190613f82565b612514565b005b60007f80ac58cd000000000000000000000000000000000000000000000000000000007bffffffffffffffffffffffffffffffffffffffffffffffffffffffff1916827bffffffffffffffffffffffffffffffffffffffffffffffffffffffff191614806108e257507f5b5e139f000000000000000000000000000000000000000000000000000000007bffffffffffffffffffffffffffffffffffffffffffffffffffffffff1916827bffffffffffffffffffffffffffffffffffffffffffffffffffffffff1916145b806108f257506108f18261259a565b5b9050919050565b606060008054610908906145ae565b80601f0160208091040260200160405190810160405280929190818152602001828054610934906145ae565b80156109815780601f1061095657610100808354040283529160200191610981565b820191906000526020600020905b81548152906001019060200180831161096457829003601f168201915b5050505050905090565b600061099682612604565b506109a08261268c565b9050919050565b6109b982826109b46126c9565b6126d1565b5050565b6109c56138d6565b6109ce826126e3565b610a0d576040517f08c379a0000000000000000000000000000000000000000000000000000000008152600401610a049061462b565b60405180910390fd5b600c600083815260200190815260200160002060405180610100016040529081600082018054610a3c906145ae565b80601f0160208091040260200160405190810160405280929190818152602001828054610a68906145ae565b8015610ab55780601f10610a8a57610100808354040283529160200191610ab5565b820191906000526020600020905b815481529060010190602001808311610a9857829003601f168201915b50505050508152602001600182018054610ace906145ae565b80601f0160208091040260200160405190810160405280929190818152602001828054610afa906145ae565b8015610b475780601f10610b1c57610100808354040283529160200191610b47565b820191906000526020600020905b815481529060010190602001808311610b2a57829003601f168201915b5050505050815260200160028201548152602001600382018054610b6a906145ae565b80601f0160208091040260200160405190810160405280929190818152602001828054610b96906145ae565b8015610be35780601f10610bb857610100808354040283529160200191610be3565b820191906000526020600020905b815481529060010190602001808311610bc657829003601f168201915b505050505081526020016004820160009054906101000a900473ffffffffffffffffffffffffffffffffffffffff1673ffffffffffffffffffffffffffffffffffffffff1673ffffffffffffffffffffffffffffffffffffffff16815260200160058201548152602001600682015481526020016007820160009054906101000a900460ff1615151515815250509050919050565b600073ffffffffffffffffffffffffffffffffffffffff168273ffffffffffffffffffffffffffffffffffffffff1603610cea5760006040517f64a0ae92000000000000000000000000000000000000000000000000000000008152600401610ce19190613b5b565b60405180910390fd5b6000610cfe8383610cf96126c9565b612724565b90508373ffffffffffffffffffffffffffffffffffffffff168173ffffffffffffffffffffffffffffffffffffffff1614610d74578382826040517f64283d7b000000000000000000000000000000000000000000000000000000008152600401610d6b9392919061464b565b60405180910390fd5b50505050565b600c602052806000526040600020600091509050806000018054610d9d906145ae565b80601f0160208091040260200160405190810160405280929190818152602001828054610dc9906145ae565b8015610e165780601f10610deb57610100808354040283529160200191610e16565b820191906000526020600020905b815481529060010190602001808311610df957829003601f168201915b505050505090806001018054610e2b906145ae565b80601f0160208091040260200160405190810160405280929190818152602001828054610e57906145ae565b8015610ea45780601f10610e7957610100808354040283529160200191610ea4565b820191906000526020600020905b815481529060010190602001808311610e8757829003601f168201915b505050505090806002015490806003018054610ebf906145ae565b80601f0160208091040260200160405190810160405280929190818152602001828054610eeb906145ae565b8015610f385780601f10610f0d57610100808354040283529160200191610f38565b820191906000526020600020905b815481529060010190602001808311610f1b57829003601f168201915b5050505050908060040160009054906101000a900473ffffffffffffffffffffffffffffffffffffffff16908060050154908060060154908060070160009054906101000a900460ff16905088565b662386f26fc1000081565b600d602052816000526040600020602052806000526040600020600091509150505481565b610fbf61293e565b600047905060008111611007576040517f08c379a0000000000000000000000000000000000000000000000000000000008152600401610ffe906146ce565b60405180910390fd5b61100f611423565b73ffffffffffffffffffffffffffffffffffffffff166108fc829081150290604051600060405180830381858888f19350505050158015611054573d6000803e3d6000fd5b5050565b61107383838360405180602001604052806000815250611b30565b505050565b60606000600160085461108b919061471d565b905060008167ffffffffffffffff8111156110a9576110a86140f9565b5b6040519080825280602002602001820160405280156110d75781602001602082028036833780820191505090505b509050600080600190505b838111611165576110f2816126e3565b801561111e5750600c600082815260200190815260200160002060070160009054906101000a900460ff165b15611152578083838151811061113757611136614751565b5b602002602001018181525050818061114e90614780565b9250505b808061115d90614780565b9150506110e2565b5060008167ffffffffffffffff811115611182576111816140f9565b5b6040519080825280602002602001820160405280156111b05781602001602082028036833780820191505090505b50905060005b82811015611205578381815181106111d1576111d0614751565b5b60200260200101518282815181106111ec576111eb614751565b5b60200260200101818152505080806001019150506111b6565b508094505050505090565b600061121b82612604565b9050919050565b60008073ffffffffffffffffffffffffffffffffffffffff168273ffffffffffffffffffffffffffffffffffffffff16036112955760006040517f89c62b6400000000000000000000000000000000000000000000000000000000815260040161128c9190613b5b565b60405180910390fd5b600360008373ffffffffffffffffffffffffffffffffffffffff1673ffffffffffffffffffffffffffffffffffffffff168152602001908152602001600020549050919050565b6112e461293e565b6112ee60006129c5565b565b3373ffffffffffffffffffffffffffffffffffffffff1661131085611210565b73ffffffffffffffffffffffffffffffffffffffff1614611366576040517f08c379a000000000000000000000000000000000000000000000000000000000815260040161135d90614814565b60405180910390fd5b8181600b600087815260200190815260200160002060008673ffffffffffffffffffffffffffffffffffffffff1673ffffffffffffffffffffffffffffffffffffffff16815260200190815260200160002091826113c59291906149eb565b5050505050565b600f60009054906101000a900473ffffffffffffffffffffffffffffffffffffffff1681565b600e602052816000526040600020818154811061140e57600080fd5b90600052602060002001600091509150505481565b6000600660009054906101000a900473ffffffffffffffffffffffffffffffffffffffff16905090565b6060600e60008373ffffffffffffffffffffffffffffffffffffffff1673ffffffffffffffffffffffffffffffffffffffff1681526020019081526020016000208054806020026020016040519081016040528092919081815260200182805480156114d857602002820191906000526020600020905b8154815260200190600101908083116114c4575b50505050509050919050565b6060600180546114f3906145ae565b80601f016020809104026020016040519081016040528092919081815260200182805461151f906145ae565b801561156c5780601f106115415761010080835404028352916020019161156c565b820191906000526020600020905b81548152906001019060200180831161154f57829003601f168201915b5050505050905090565b61157e612a8b565b611587816126e3565b6115c6576040517f08c379a00000000000000000000000000000000000000000000000000000000081526004016115bd9061462b565b60405180910390fd5b662386f26fc10000341015611610576040517f08c379a000000000000000000000000000000000000000000000000000000000815260040161160790614b07565b60405180910390fd5b6000600c60008381526020019081526020016000209050600061163283611210565b90508073ffffffffffffffffffffffffffffffffffffffff163373ffffffffffffffffffffffffffffffffffffffff1614611781578160070160009054906101000a900460ff166116b8576040517f08c379a00000000000000000000000000000000000000000000000000000000081526004016116af90614b73565b60405180910390fd5b60006064605a346116c99190614b93565b6116d39190614c04565b9050600081346116e3919061471d565b90508273ffffffffffffffffffffffffffffffffffffffff166108fc839081150290604051600060405180830381858888f1935050505015801561172b573d6000803e3d6000fd5b50611734611423565b73ffffffffffffffffffffffffffffffffffffffff166108fc829081150290604051600060405180830381858888f19350505050158015611779573d6000803e3d6000fd5b5050506117c9565b3373ffffffffffffffffffffffffffffffffffffffff166108fc349081150290604051600060405180830381858888f193505050501580156117c7573d6000803e3d6000fd5b505b600d600084815260200190815260200160002060003373ffffffffffffffffffffffffffffffffffffffff1673ffffffffffffffffffffffffffffffffffffffff168152602001908152602001600020600081548092919061182a90614780565b919050555081600601600081548092919061184490614780565b91905055503373ffffffffffffffffffffffffffffffffffffffff16837f567a7e9d0be50b8bad566cdc467beb3d12eef3e2edf04d6259865a0d3e356ebd600d600087815260200190815260200160002060003373ffffffffffffffffffffffffffffffffffffffff1673ffffffffffffffffffffffffffffffffffffffff168152602001908152602001600020546040516118e09190613e56565b60405180910390a350506118f2612ad1565b50565b6119076119006126c9565b8383612adb565b5050565b6000600d600084815260200190815260200160002060008373ffffffffffffffffffffffffffffffffffffffff1673ffffffffffffffffffffffffffffffffffffffff16815260200190815260200160002054905092915050565b6060611971826126e3565b6119b0576040517f08c379a00000000000000000000000000000000000000000000000000000000081526004016119a790614c81565b60405180910390fd5b3373ffffffffffffffffffffffffffffffffffffffff166119d083611210565b73ffffffffffffffffffffffffffffffffffffffff161480611a4e57506000600b600084815260200190815260200160002060003373ffffffffffffffffffffffffffffffffffffffff1673ffffffffffffffffffffffffffffffffffffffff1681526020019081526020016000208054611a4a906145ae565b9050115b611a8d576040517f08c379a0000000000000000000000000000000000000000000000000000000008152600401611a8490614d13565b60405180910390fd5b600a60008381526020019081526020016000208054611aab906145ae565b80601f0160208091040260200160405190810160405280929190818152602001828054611ad7906145ae565b8015611b245780601f10611af957610100808354040283529160200191611b24565b820191906000526020600020905b815481529060010190602001808311611b0757829003601f168201915b50505050509050919050565b611b3b848484610c78565b611b4f611b466126c9565b85858585612c4a565b50505050565b662386f26fc1000081565b6060611b6b826126e3565b611baa576040517f08c379a0000000000000000000000000000000000000000000000000000000008152600401611ba190614c81565b60405180910390fd5b6000600c600084815260200190815260200160002060405180610100016040529081600082018054611bdb906145ae565b80601f0160208091040260200160405190810160405280929190818152602001828054611c07906145ae565b8015611c545780601f10611c2957610100808354040283529160200191611c54565b820191906000526020600020905b815481529060010190602001808311611c3757829003601f168201915b50505050508152602001600182018054611c6d906145ae565b80601f0160208091040260200160405190810160405280929190818152602001828054611c99906145ae565b8015611ce65780601f10611cbb57610100808354040283529160200191611ce6565b820191906000526020600020905b815481529060010190602001808311611cc957829003601f168201915b5050505050815260200160028201548152602001600382018054611d09906145ae565b80601f0160208091040260200160405190810160405280929190818152602001828054611d35906145ae565b8015611d825780601f10611d5757610100808354040283529160200191611d82565b820191906000526020600020905b815481529060010190602001808311611d6557829003601f168201915b505050505081526020016004820160009054906101000a900473ffffffffffffffffffffffffffffffffffffffff1673ffffffffffffffffffffffffffffffffffffffff1673ffffffffffffffffffffffffffffffffffffffff16815260200160058201548152602001600682015481526020016007820160009054906101000a900460ff161515151581525050905080600001518160600151611e298360800151612dfb565b611e368460c00151613100565b8460e00151611e7a576040518060400160405280600581526020017f66616c7365000000000000000000000000000000000000000000000000000000815250611eb1565b6040518060400160405280600481526020017f74727565000000000000000000000000000000000000000000000000000000008152505b604051602001611ec5959493929190614fcf565b604051602081830303815290604052915050919050565b611ee4612a8b565b662386f26fc10000341015611f2e576040517f08c379a0000000000000000000000000000000000000000000000000000000008152600401611f25906150d4565b60405180910390fd5b6000855111611f72576040517f08c379a0000000000000000000000000000000000000000000000000000000008152600401611f6990615140565b60405180910390fd5b6000845111611fb6576040517f08c379a0000000000000000000000000000000000000000000000000000000008152600401611fad906151ac565b60405180910390fd5b6000801b8303611ffb576040517f08c379a0000000000000000000000000000000000000000000000000000000008152600401611ff290615218565b60405180910390fd5b600082511161203f576040517f08c379a000000000000000000000000000000000000000000000000000000000815260040161203690615284565b60405180910390fd5b60006008600081548092919061205490614780565b9190505590506120643382613260565b84600a6000838152602001908152602001600020908161208491906152ff565b508360096000838152602001908152602001600020819055506040518061010001604052808781526020018681526020018581526020018481526020013373ffffffffffffffffffffffffffffffffffffffff16815260200142815260200160008152602001831515815250600c6000838152602001908152602001600020600082015181600001908161211891906152ff565b50602082015181600101908161212e91906152ff565b5060408201518160020155606082015181600301908161214e91906152ff565b5060808201518160040160006101000a81548173ffffffffffffffffffffffffffffffffffffffff021916908373ffffffffffffffffffffffffffffffffffffffff16021790555060a0820151816005015560c0820151816006015560e08201518160070160006101000a81548160ff021916908315150217905550905050600e60003373ffffffffffffffffffffffffffffffffffffffff1673ffffffffffffffffffffffffffffffffffffffff1681526020019081526020016000208190806001815401808255809150506001900390600052602060002001600090919091909150553373ffffffffffffffffffffffffffffffffffffffff16817fb283579c12ff1ce458a83709ad58dcc85dcfac49d60ab70057d28eb5d55939988888888860405161228094939291906153f7565b60405180910390a350612291612ad1565b5050505050565b6122a0612a8b565b8673ffffffffffffffffffffffffffffffffffffffff166122c086611210565b73ffffffffffffffffffffffffffffffffffffffff1614612316576040517f08c379a000000000000000000000000000000000000000000000000000000000815260040161230d906154b0565b60405180910390fd5b612320828261327e565b61235f576040517f08c379a00000000000000000000000000000000000000000000000000000000081526004016123569061551c565b60405180910390fd5b61236d85878686868661328e565b6123788787876132c5565b847f9c06c04824dfb4ebf41804d51120c24a2ab63d6230efe7b7bc5a199f837dd3ad85856040516123aa92919061556c565b60405180910390206040516123bf9190615585565b60405180910390a26123cf612ad1565b50505050505050565b3373ffffffffffffffffffffffffffffffffffffffff166123f883611210565b73ffffffffffffffffffffffffffffffffffffffff161461244e576040517f08c379a0000000000000000000000000000000000000000000000000000000008152600401612445906155ec565b60405180910390fd5b80600c600084815260200190815260200160002060070160006101000a81548160ff0219169083151502179055505050565b6000600560008473ffffffffffffffffffffffffffffffffffffffff1673ffffffffffffffffffffffffffffffffffffffff16815260200190815260200160002060008373ffffffffffffffffffffffffffffffffffffffff1673ffffffffffffffffffffffffffffffffffffffff16815260200190815260200160002060009054906101000a900460ff16905092915050565b61251c61293e565b600073ffffffffffffffffffffffffffffffffffffffff168173ffffffffffffffffffffffffffffffffffffffff160361258e5760006040517f1e4fbdf70000000000000000000000000000000000000000000000000000000081526004016125859190613b5b565b60405180910390fd5b612597816129c5565b50565b60007f01ffc9a7000000000000000000000000000000000000000000000000000000007bffffffffffffffffffffffffffffffffffffffffffffffffffffffff1916827bffffffffffffffffffffffffffffffffffffffffffffffffffffffff1916149050919050565b60008061261083613432565b9050600073ffffffffffffffffffffffffffffffffffffffff168173ffffffffffffffffffffffffffffffffffffffff160361268357826040517f7e27328900000000000000000000000000000000000000000000000000000000815260040161267a9190613e56565b60405180910390fd5b80915050919050565b60006004600083815260200190815260200160002060009054906101000a900473ffffffffffffffffffffffffffffffffffffffff169050919050565b600033905090565b6126de838383600161346f565b505050565b60008073ffffffffffffffffffffffffffffffffffffffff1661270583613432565b73ffffffffffffffffffffffffffffffffffffffff1614159050919050565b60008061273084613432565b9050600073ffffffffffffffffffffffffffffffffffffffff168373ffffffffffffffffffffffffffffffffffffffff161461277257612771818486613634565b5b600073ffffffffffffffffffffffffffffffffffffffff168173ffffffffffffffffffffffffffffffffffffffff1614612803576127b460008560008061346f565b6001600360008373ffffffffffffffffffffffffffffffffffffffff1673ffffffffffffffffffffffffffffffffffffffff168152602001908152602001600020600082825403925050819055505b600073ffffffffffffffffffffffffffffffffffffffff168573ffffffffffffffffffffffffffffffffffffffff1614612886576001600360008773ffffffffffffffffffffffffffffffffffffffff1673ffffffffffffffffffffffffffffffffffffffff168152602001908152602001600020600082825401925050819055505b846002600086815260200190815260200160002060006101000a81548173ffffffffffffffffffffffffffffffffffffffff021916908373ffffffffffffffffffffffffffffffffffffffff160217905550838573ffffffffffffffffffffffffffffffffffffffff168273ffffffffffffffffffffffffffffffffffffffff167fddf252ad1be2c89b69c2b068fc378daa952ba7f163c4a11628f55a4df523b3ef60405160405180910390a4809150509392505050565b6129466126c9565b73ffffffffffffffffffffffffffffffffffffffff16612964611423565b73ffffffffffffffffffffffffffffffffffffffff16146129c3576129876126c9565b6040517f118cdaa70000000000000000000000000000000000000000000000000000000081526004016129ba9190613b5b565b60405180910390fd5b565b6000600660009054906101000a900473ffffffffffffffffffffffffffffffffffffffff16905081600660006101000a81548173ffffffffffffffffffffffffffffffffffffffff021916908373ffffffffffffffffffffffffffffffffffffffff1602179055508173ffffffffffffffffffffffffffffffffffffffff168173ffffffffffffffffffffffffffffffffffffffff167f8be0079c531659141344cd1fd0a4f28419497f9722a3daafe3b4186f6b6457e060405160405180910390a35050565b600260075403612ac7576040517f3ee5aeb500000000000000000000000000000000000000000000000000000000815260040160405180910390fd5b6002600781905550565b6001600781905550565b600073ffffffffffffffffffffffffffffffffffffffff168273ffffffffffffffffffffffffffffffffffffffff1603612b4c57816040517f5b08ba18000000000000000000000000000000000000000000000000000000008152600401612b439190613b5b565b60405180910390fd5b80600560008573ffffffffffffffffffffffffffffffffffffffff1673ffffffffffffffffffffffffffffffffffffffff16815260200190815260200160002060008473ffffffffffffffffffffffffffffffffffffffff1673ffffffffffffffffffffffffffffffffffffffff16815260200190815260200160002060006101000a81548160ff0219169083151502179055508173ffffffffffffffffffffffffffffffffffffffff168373ffffffffffffffffffffffffffffffffffffffff167f17307eab39ab6107e8899845ad3d59bd9653f200f220920489ca2b5937696c3183604051612c3d91906139ea565b60405180910390a3505050565b60008373ffffffffffffffffffffffffffffffffffffffff163b1115612df4578273ffffffffffffffffffffffffffffffffffffffff1663150b7a02868685856040518563ffffffff1660e01b8152600401612ca99493929190615661565b6020604051808303816000875af1925050508015612ce557506040513d601f19601f82011682018060405250810190612ce291906156c2565b60015b612d69573d8060008114612d15576040519150601f19603f3d011682016040523d82523d6000602084013e612d1a565b606091505b506000815103612d6157836040517f64a0ae92000000000000000000000000000000000000000000000000000000008152600401612d589190613b5b565b60405180910390fd5b805160208201fd5b63150b7a0260e01b7bffffffffffffffffffffffffffffffffffffffffffffffffffffffff1916817bffffffffffffffffffffffffffffffffffffffffffffffffffffffff191614612df257836040517f64a0ae92000000000000000000000000000000000000000000000000000000008152600401612de99190613b5b565b60405180910390fd5b505b5050505050565b606060008273ffffffffffffffffffffffffffffffffffffffff1660001b905060006040518060400160405280601081526020017f303132333435363738396162636465660000000000000000000000000000000081525090506000602a67ffffffffffffffff811115612e7257612e716140f9565b5b6040519080825280601f01601f191660200182016040528015612ea45781602001600182028036833780820191505090505b5090507f300000000000000000000000000000000000000000000000000000000000000081600081518110612edc57612edb614751565b5b60200101907effffffffffffffffffffffffffffffffffffffffffffffffffffffffffffff1916908160001a9053507f780000000000000000000000000000000000000000000000000000000000000081600181518110612f4057612f3f614751565b5b60200101907effffffffffffffffffffffffffffffffffffffffffffffffffffffffffffff1916908160001a90535060005b60148110156130f45782600485600c84612f8c91906156ef565b60208110612f9d57612f9c614751565b5b1a60f81b7effffffffffffffffffffffffffffffffffffffffffffffffffffffffffffff1916901c60f81c60ff1681518110612fdc57612fdb614751565b5b602001015160f81c60f81b82600283612ff59190614b93565b600261300191906156ef565b8151811061301257613011614751565b5b60200101907effffffffffffffffffffffffffffffffffffffffffffffffffffffffffffff1916908160001a90535082600f60f81b85600c8461305591906156ef565b6020811061306657613065614751565b5b1a60f81b1660f81c60ff168151811061308257613081614751565b5b602001015160f81c60f81b8260028361309b9190614b93565b60036130a791906156ef565b815181106130b8576130b7614751565b5b60200101907effffffffffffffffffffffffffffffffffffffffffffffffffffffffffffff1916908160001a9053508080600101915050612f72565b50809350505050919050565b606060008203613147576040518060400160405280600181526020017f3000000000000000000000000000000000000000000000000000000000000000815250905061325b565b600082905060005b6000821461317957808061316290614780565b915050600a826131729190614c04565b915061314f565b60008167ffffffffffffffff811115613195576131946140f9565b5b6040519080825280601f01601f1916602001820160405280156131c75781602001600182028036833780820191505090505b5090505b60008514613254576001826131e0919061471d565b9150600a856131ef9190615723565b60306131fb91906156ef565b60f81b81838151811061321157613210614751565b5b60200101907effffffffffffffffffffffffffffffffffffffffffffffffffffffffffffff1916908160001a905350600a8561324d9190614c04565b94506131cb565b8093505050505b919050565b61327a8282604051806020016040528060008152506136f8565b5050565b6000808383905011905092915050565b838360405161329e92919061556c565b60405180910390206009600088815260200190815260200160002081905550505050505050565b600073ffffffffffffffffffffffffffffffffffffffff168273ffffffffffffffffffffffffffffffffffffffff16036133375760006040517f64a0ae9200000000000000000000000000000000000000000000000000000000815260040161332e9190613b5b565b60405180910390fd5b600061334583836000612724565b9050600073ffffffffffffffffffffffffffffffffffffffff168173ffffffffffffffffffffffffffffffffffffffff16036133b857816040517f7e2732890000000000000000000000000000000000000000000000000000000081526004016133af9190613e56565b60405180910390fd5b8373ffffffffffffffffffffffffffffffffffffffff168173ffffffffffffffffffffffffffffffffffffffff161461342c578382826040517f64283d7b0000000000000000000000000000000000000000000000000000000081526004016134239392919061464b565b60405180910390fd5b50505050565b60006002600083815260200190815260200160002060009054906101000a900473ffffffffffffffffffffffffffffffffffffffff169050919050565b80806134a85750600073ffffffffffffffffffffffffffffffffffffffff168273ffffffffffffffffffffffffffffffffffffffff1614155b156135dc5760006134b884612604565b9050600073ffffffffffffffffffffffffffffffffffffffff168373ffffffffffffffffffffffffffffffffffffffff161415801561352357508273ffffffffffffffffffffffffffffffffffffffff168173ffffffffffffffffffffffffffffffffffffffff1614155b801561353657506135348184612480565b155b1561357857826040517fa9fbf51f00000000000000000000000000000000000000000000000000000000815260040161356f9190613b5b565b60405180910390fd5b81156135da57838573ffffffffffffffffffffffffffffffffffffffff168273ffffffffffffffffffffffffffffffffffffffff167f8c5be1e5ebec7d5bd14f71427d1e84f3dd0314c0f7b2291e5b200ac8c7c3b92560405160405180910390a45b505b836004600085815260200190815260200160002060006101000a81548173ffffffffffffffffffffffffffffffffffffffff021916908373ffffffffffffffffffffffffffffffffffffffff16021790555050505050565b61363f83838361371c565b6136f357600073ffffffffffffffffffffffffffffffffffffffff168373ffffffffffffffffffffffffffffffffffffffff16036136b457806040517f7e2732890000000000000000000000000000000000000000000000000000000081526004016136ab9190613e56565b60405180910390fd5b81816040517f177e802f0000000000000000000000000000000000000000000000000000000081526004016136ea929190615754565b60405180910390fd5b505050565b61370283836137dd565b61371761370d6126c9565b6000858585612c4a565b505050565b60008073ffffffffffffffffffffffffffffffffffffffff168373ffffffffffffffffffffffffffffffffffffffff16141580156137d457508273ffffffffffffffffffffffffffffffffffffffff168473ffffffffffffffffffffffffffffffffffffffff16148061379557506137948484612480565b5b806137d357508273ffffffffffffffffffffffffffffffffffffffff166137bb8361268c565b73ffffffffffffffffffffffffffffffffffffffff16145b5b90509392505050565b600073ffffffffffffffffffffffffffffffffffffffff168273ffffffffffffffffffffffffffffffffffffffff160361384f5760006040517f64a0ae920000000000000000000000000000000000000000000000000000000081526004016138469190613b5b565b60405180910390fd5b600061385d83836000612724565b9050600073ffffffffffffffffffffffffffffffffffffffff168173ffffffffffffffffffffffffffffffffffffffff16146138d15760006040517f73c6ac6e0000000000000000000000000000000000000000000000000000000081526004016138c89190613b5b565b60405180910390fd5b505050565b60405180610100016040528060608152602001606081526020016000801916815260200160608152602001600073ffffffffffffffffffffffffffffffffffffffff16815260200160008152602001600081526020016000151581525090565b6000604051905090565b600080fd5b600080fd5b60007fffffffff0000000000000000000000000000000000000000000000000000000082169050919050565b61397f8161394a565b811461398a57600080fd5b50565b60008135905061399c81613976565b92915050565b6000602082840312156139b8576139b7613940565b5b60006139c68482850161398d565b91505092915050565b60008115159050919050565b6139e4816139cf565b82525050565b60006020820190506139ff60008301846139db565b92915050565b600081519050919050565b600082825260208201905092915050565b60005b83811015613a3f578082015181840152602081019050613a24565b60008484015250505050565b6000601f19601f8301169050919050565b6000613a6782613a05565b613a718185613a10565b9350613a81818560208601613a21565b613a8a81613a4b565b840191505092915050565b60006020820190508181036000830152613aaf8184613a5c565b905092915050565b6000819050919050565b613aca81613ab7565b8114613ad557600080fd5b50565b600081359050613ae781613ac1565b92915050565b600060208284031215613b0357613b02613940565b5b6000613b1184828501613ad8565b91505092915050565b600073ffffffffffffffffffffffffffffffffffffffff82169050919050565b6000613b4582613b1a565b9050919050565b613b5581613b3a565b82525050565b6000602082019050613b706000830184613b4c565b92915050565b613b7f81613b3a565b8114613b8a57600080fd5b50565b600081359050613b9c81613b76565b92915050565b60008060408385031215613bb957613bb8613940565b5b6000613bc785828601613b8d565b9250506020613bd885828601613ad8565b9150509250929050565b600082825260208201905092915050565b6000613bfe82613a05565b613c088185613be2565b9350613c18818560208601613a21565b613c2181613a4b565b840191505092915050565b6000819050919050565b613c3f81613c2c565b82525050565b613c4e81613b3a565b82525050565b613c5d81613ab7565b82525050565b613c6c816139cf565b82525050565b6000610100830160008301518482036000860152613c908282613bf3565b91505060208301518482036020860152613caa8282613bf3565b9150506040830151613cbf6040860182613c36565b5060608301518482036060860152613cd78282613bf3565b9150506080830151613cec6080860182613c45565b5060a0830151613cff60a0860182613c54565b5060c0830151613d1260c0860182613c54565b5060e0830151613d2560e0860182613c63565b508091505092915050565b60006020820190508181036000830152613d4a8184613c72565b905092915050565b600080600060608486031215613d6b57613d6a613940565b5b6000613d7986828701613b8d565b9350506020613d8a86828701613b8d565b9250506040613d9b86828701613ad8565b9150509250925092565b613dae81613c2c565b82525050565b613dbd81613ab7565b82525050565b6000610100820190508181036000830152613dde818b613a5c565b90508181036020830152613df2818a613a5c565b9050613e016040830189613da5565b8181036060830152613e138188613a5c565b9050613e226080830187613b4c565b613e2f60a0830186613db4565b613e3c60c0830185613db4565b613e4960e08301846139db565b9998505050505050505050565b6000602082019050613e6b6000830184613db4565b92915050565b60008060408385031215613e8857613e87613940565b5b6000613e9685828601613ad8565b9250506020613ea785828601613b8d565b9150509250929050565b600081519050919050565b600082825260208201905092915050565b6000819050602082019050919050565b6000613ee98383613c54565b60208301905092915050565b6000602082019050919050565b6000613f0d82613eb1565b613f178185613ebc565b9350613f2283613ecd565b8060005b83811015613f53578151613f3a8882613edd565b9750613f4583613ef5565b925050600181019050613f26565b5085935050505092915050565b60006020820190508181036000830152613f7a8184613f02565b905092915050565b600060208284031215613f9857613f97613940565b5b6000613fa684828501613b8d565b91505092915050565b600080fd5b600080fd5b600080fd5b60008083601f840112613fd457613fd3613faf565b5b8235905067ffffffffffffffff811115613ff157613ff0613fb4565b5b60208301915083600182028301111561400d5761400c613fb9565b5b9250929050565b6000806000806060858703121561402e5761402d613940565b5b600061403c87828801613ad8565b945050602061404d87828801613b8d565b935050604085013567ffffffffffffffff81111561406e5761406d613945565b5b61407a87828801613fbe565b925092505092959194509250565b614091816139cf565b811461409c57600080fd5b50565b6000813590506140ae81614088565b92915050565b600080604083850312156140cb576140ca613940565b5b60006140d985828601613b8d565b92505060206140ea8582860161409f565b9150509250929050565b600080fd5b7f4e487b7100000000000000000000000000000000000000000000000000000000600052604160045260246000fd5b61413182613a4b565b810181811067ffffffffffffffff821117156141505761414f6140f9565b5b80604052505050565b6000614163613936565b905061416f8282614128565b919050565b600067ffffffffffffffff82111561418f5761418e6140f9565b5b61419882613a4b565b9050602081019050919050565b82818337600083830152505050565b60006141c76141c284614174565b614159565b9050828152602081018484840111156141e3576141e26140f4565b5b6141ee8482856141a5565b509392505050565b600082601f83011261420b5761420a613faf565b5b813561421b8482602086016141b4565b91505092915050565b6000806000806080858703121561423e5761423d613940565b5b600061424c87828801613b8d565b945050602061425d87828801613b8d565b935050604061426e87828801613ad8565b925050606085013567ffffffffffffffff81111561428f5761428e613945565b5b61429b878288016141f6565b91505092959194509250565b600067ffffffffffffffff8211156142c2576142c16140f9565b5b6142cb82613a4b565b9050602081019050919050565b60006142eb6142e6846142a7565b614159565b905082815260208101848484011115614307576143066140f4565b5b6143128482856141a5565b509392505050565b600082601f83011261432f5761432e613faf565b5b813561433f8482602086016142d8565b91505092915050565b61435181613c2c565b811461435c57600080fd5b50565b60008135905061436e81614348565b92915050565b600080600080600060a086880312156143905761438f613940565b5b600086013567ffffffffffffffff8111156143ae576143ad613945565b5b6143ba8882890161431a565b955050602086013567ffffffffffffffff8111156143db576143da613945565b5b6143e78882890161431a565b94505060406143f88882890161435f565b935050606086013567ffffffffffffffff81111561441957614418613945565b5b6144258882890161431a565b92505060806144368882890161409f565b9150509295509295909350565b600080600080600080600060a0888a03121561446257614461613940565b5b60006144708a828b01613b8d565b97505060206144818a828b01613b8d565b96505060406144928a828b01613ad8565b955050606088013567ffffffffffffffff8111156144b3576144b2613945565b5b6144bf8a828b01613fbe565b9450945050608088013567ffffffffffffffff8111156144e2576144e1613945565b5b6144ee8a828b01613fbe565b925092505092959891949750929550565b6000806040838503121561451657614515613940565b5b600061452485828601613ad8565b92505060206145358582860161409f565b9150509250929050565b6000806040838503121561455657614555613940565b5b600061456485828601613b8d565b925050602061457585828601613b8d565b9150509250929050565b7f4e487b7100000000000000000000000000000000000000000000000000000000600052602260045260246000fd5b600060028204905060018216806145c657607f821691505b6020821081036145d9576145d861457f565b5b50919050565b7f4149204769726c667269656e6420646f6573206e6f7420657869737400000000600082015250565b6000614615601c83613a10565b9150614620826145df565b602082019050919050565b6000602082019050818103600083015261464481614608565b9050919050565b60006060820190506146606000830186613b4c565b61466d6020830185613db4565b61467a6040830184613b4c565b949350505050565b7f4e6f2066756e647320746f207769746864726177000000000000000000000000600082015250565b60006146b8601483613a10565b91506146c382614682565b602082019050919050565b600060208201905081810360008301526146e7816146ab565b9050919050565b7f4e487b7100000000000000000000000000000000000000000000000000000000600052601160045260246000fd5b600061472882613ab7565b915061473383613ab7565b925082820390508181111561474b5761474a6146ee565b5b92915050565b7f4e487b7100000000000000000000000000000000000000000000000000000000600052603260045260246000fd5b600061478b82613ab7565b91507fffffffffffffffffffffffffffffffffffffffffffffffffffffffffffffffff82036147bd576147bc6146ee565b5b600182019050919050565b7f4f6e6c79206f776e65722063616e20617574686f72697a650000000000000000600082015250565b60006147fe601883613a10565b9150614809826147c8565b602082019050919050565b6000602082019050818103600083015261482d816147f1565b9050919050565b600082905092915050565b60008190508160005260206000209050919050565b60006020601f8301049050919050565b600082821b905092915050565b6000600883026148a17fffffffffffffffffffffffffffffffffffffffffffffffffffffffffffffffff82614864565b6148ab8683614864565b95508019841693508086168417925050509392505050565b6000819050919050565b60006148e86148e36148de84613ab7565b6148c3565b613ab7565b9050919050565b6000819050919050565b614902836148cd565b61491661490e826148ef565b848454614871565b825550505050565b600090565b61492b61491e565b6149368184846148f9565b505050565b5b8181101561495a5761494f600082614923565b60018101905061493c565b5050565b601f82111561499f576149708161483f565b61497984614854565b81016020851015614988578190505b61499c61499485614854565b83018261493b565b50505b505050565b600082821c905092915050565b60006149c2600019846008026149a4565b1980831691505092915050565b60006149db83836149b1565b9150826002028217905092915050565b6149f58383614834565b67ffffffffffffffff811115614a0e57614a0d6140f9565b5b614a1882546145ae565b614a2382828561495e565b6000601f831160018114614a525760008415614a40578287013590505b614a4a85826149cf565b865550614ab2565b601f198416614a608661483f565b60005b82811015614a8857848901358255600182019150602085019450602081019050614a63565b86831015614aa55784890135614aa1601f8916826149b1565b8355505b6001600288020188555050505b50505050505050565b7f496e73756666696369656e74207061796d656e7420666f722063686174000000600082015250565b6000614af1601d83613a10565b9150614afc82614abb565b602082019050919050565b60006020820190508181036000830152614b2081614ae4565b9050919050565b7f54686973204149206769726c667269656e642069732070726976617465000000600082015250565b6000614b5d601d83613a10565b9150614b6882614b27565b602082019050919050565b60006020820190508181036000830152614b8c81614b50565b9050919050565b6000614b9e82613ab7565b9150614ba983613ab7565b9250828202614bb781613ab7565b91508282048414831517614bce57614bcd6146ee565b5b5092915050565b7f4e487b7100000000000000000000000000000000000000000000000000000000600052601260045260246000fd5b6000614c0f82613ab7565b9150614c1a83613ab7565b925082614c2a57614c29614bd5565b5b828204905092915050565b7f546f6b656e20646f6573206e6f74206578697374000000000000000000000000600082015250565b6000614c6b601483613a10565b9150614c7682614c35565b602082019050919050565b60006020820190508181036000830152614c9a81614c5e565b9050919050565b7f4e6f7420617574686f72697a656420746f20616363657373206d65746164617460008201527f6100000000000000000000000000000000000000000000000000000000000000602082015250565b6000614cfd602183613a10565b9150614d0882614ca1565b604082019050919050565b60006020820190508181036000830152614d2c81614cf0565b9050919050565b600081905092915050565b7f7b226e616d65223a220000000000000000000000000000000000000000000000600082015250565b6000614d74600983614d33565b9150614d7f82614d3e565b600982019050919050565b6000614d9582613a05565b614d9f8185614d33565b9350614daf818560208601613a21565b80840191505092915050565b7f222c000000000000000000000000000000000000000000000000000000000000600082015250565b6000614df1600283614d33565b9150614dfc82614dbb565b600282019050919050565b7f22696d616765223a220000000000000000000000000000000000000000000000600082015250565b6000614e3d600983614d33565b9150614e4882614e07565b600982019050919050565b7f2263726561746f72223a22000000000000000000000000000000000000000000600082015250565b6000614e89600b83614d33565b9150614e9482614e53565b600b82019050919050565b7f22746f74616c4368617473223a00000000000000000000000000000000000000600082015250565b6000614ed5600d83614d33565b9150614ee082614e9f565b600d82019050919050565b7f2c00000000000000000000000000000000000000000000000000000000000000600082015250565b6000614f21600183614d33565b9150614f2c82614eeb565b600182019050919050565b7f2269735075626c6963223a000000000000000000000000000000000000000000600082015250565b6000614f6d600b83614d33565b9150614f7882614f37565b600b82019050919050565b7f7d00000000000000000000000000000000000000000000000000000000000000600082015250565b6000614fb9600183614d33565b9150614fc482614f83565b600182019050919050565b6000614fda82614d67565b9150614fe68288614d8a565b9150614ff182614de4565b9150614ffc82614e30565b91506150088287614d8a565b915061501382614de4565b915061501e82614e7c565b915061502a8286614d8a565b915061503582614de4565b915061504082614ec8565b915061504c8285614d8a565b915061505782614f14565b915061506282614f60565b915061506e8284614d8a565b915061507982614fac565b91508190509695505050505050565b7f496e73756666696369656e74207061796d656e7420666f72206d696e74696e67600082015250565b60006150be602083613a10565b91506150c982615088565b602082019050919050565b600060208201905081810360008301526150ed816150b1565b9050919050565b7f4e616d652063616e6e6f7420626520656d707479000000000000000000000000600082015250565b600061512a601483613a10565b9150615135826150f4565b602082019050919050565b600060208201905081810360008301526151598161511d565b9050919050565b7f456e63727970746564205552492063616e6e6f7420626520656d707479000000600082015250565b6000615196601d83613a10565b91506151a182615160565b602082019050919050565b600060208201905081810360008301526151c581615189565b9050919050565b7f4d6574616461746120686173682063616e6e6f7420626520656d707479000000600082015250565b6000615202601d83613a10565b915061520d826151cc565b602082019050919050565b60006020820190508181036000830152615231816151f5565b9050919050565b7f496d61676520686173682063616e6e6f7420626520656d707479000000000000600082015250565b600061526e601a83613a10565b915061527982615238565b602082019050919050565b6000602082019050818103600083015261529d81615261565b9050919050565b60008190508160005260206000209050919050565b601f8211156152fa576152cb816152a4565b6152d484614854565b810160208510156152e3578190505b6152f76152ef85614854565b83018261493b565b50505b505050565b61530882613a05565b67ffffffffffffffff811115615321576153206140f9565b5b61532b82546145ae565b6153368282856152b9565b600060209050601f8311600181146153695760008415615357578287015190505b61536185826149cf565b8655506153c9565b601f198416615377866152a4565b60005b8281101561539f5784890151825560018201915060208501945060208101905061537a565b868310156153bc57848901516153b8601f8916826149b1565b8355505b6001600288020188555050505b505050505050565b50565b60006153e1600083613a10565b91506153ec826153d1565b600082019050919050565b600060a08201905081810360008301526154118187613a5c565b90508181036020830152615424816153d4565b905081810360408301526154388186613a5c565b90506154476060830185613da5565b81810360808301526154598184613a5c565b905095945050505050565b7f4e6f74206f776e65720000000000000000000000000000000000000000000000600082015250565b600061549a600983613a10565b91506154a582615464565b602082019050919050565b600060208201905081810360008301526154c98161548d565b9050919050565b7f496e76616c69642070726f6f6600000000000000000000000000000000000000600082015250565b6000615506600d83613a10565b9150615511826154d0565b602082019050919050565b60006020820190508181036000830152615535816154f9565b9050919050565b600081905092915050565b6000615553838561553c565b93506155608385846141a5565b82840190509392505050565b6000615579828486615547565b91508190509392505050565b600060208201905061559a6000830184613da5565b92915050565b7f4f6e6c79206f776e65722063616e206368616e6765207075626c696369747900600082015250565b60006155d6601f83613a10565b91506155e1826155a0565b602082019050919050565b60006020820190508181036000830152615605816155c9565b9050919050565b600081519050919050565b600082825260208201905092915050565b60006156338261560c565b61563d8185615617565b935061564d818560208601613a21565b61565681613a4b565b840191505092915050565b60006080820190506156766000830187613b4c565b6156836020830186613b4c565b6156906040830185613db4565b81810360608301526156a28184615628565b905095945050505050565b6000815190506156bc81613976565b92915050565b6000602082840312156156d8576156d7613940565b5b60006156e6848285016156ad565b91505092915050565b60006156fa82613ab7565b915061570583613ab7565b925082820190508082111561571d5761571c6146ee565b5b92915050565b600061572e82613ab7565b915061573983613ab7565b92508261574957615748614bd5565b5b828206905092915050565b60006040820190506157696000830185613b4c565b6157766020830184613db4565b939250505056fea2646970667358221220f2eda83a23952cfc2b216919bc56cffc9dbff27f90b4292a10b807b0dd6fa5c764736f6c63430008180033",
  "linkReferences": {},
  "deployedLinkReferences": {}
}